:020000040800F2
:100000001814002045010008550300084D0300089E
:10001000510300088D0100086B100008000000006B
:10002000000000000000000000000000E1070008E0
:10003000910100080000000059060008CD080008E2
:100040005F0100085F0100085F0100085F01000810
:100050005F0100085F0100085F0100085F01000800
:100060005F0100085F0100085F0100085F010008F0
:100070005F0100085F0100085F0100085F010008E0
:100080005F0100085F0100085F0100085F010008D0
:100090005F0100085F0100085F0100085F010008C0
:1000A0005F0100085F0100085F0100085F010008B0
:1000B0005F0100085F0100085F0100085F010008A0
:1000C0005F0100085F0100085F0100085F01000890
:1000D0005F010008710B00085F0100085F01000864
:1000E0005F0100085F0100085F0100085F01000870
:1000F0005F0100085F0100085F0100085F01000860
:100100005F0100085F0100085F0100085F0100084F
:100110005F0100085F0100085F0100085F0100083F
:100120005F0100085F0100085F0100085F0100082F
:10013000DFF80CD000F018F8004800474111000823
:10014000181400200648804706480047FEE7FEE7EF
:10015000FEE7FEE7FEE7FEE7FEE7FEE7FEE7FEE777
:10016000D108000831010008064C074D06E0E068A0
:1001700040F0010394E8070098471034AC42F6D3EE
:10018000FFF7DAFFF81400081815000800BFFEE7B3
:100190007047000008B50121022000F05FFA01213C
:1001A000042000F05BFA0121082000F057FA012139
:1001B0004C2000F063FA0320ADF8000018208DF801
:1001C000030003208DF802006946114800F026F86C
:1001D0004FF4C050ADF8000010208DF803006946C0
:1001E0000B4800F01BF840F2C330ADF80000694640
:1001F000084800F013F84FF4F060ADF80000042058
:100200008DF803006946044800F008F808BD0000B6
:1002100000080140000C0140001801402DE9F041A8
:10022000024600250026002000230024002791F824
:1002300003C00CF00F0591F803C00CF0100CBCF1DA
:10024000000F03D091F802C04CEA050591F800C0F8
:10025000BCF1000F31D0146800202BE04FF0010CEE
:100260000CFA00F3B1F800C00CEA03069E4220D15C
:1002700083004FF00F0C0CFA03F7BC4305FA03FCA4
:100280004CEA040491F803C0BCF1280F06D14FF0EA
:10029000010C0CFA00FCC2F814C00AE091F803C08B
:1002A000BCF1480F05D14FF0010C0CFA00FCC2F86C
:1002B00010C0401C0828D1D31460B1F800C0BCF1B4
:1002C000FF0F34DD546800202EE000F1080C4FF0E1
:1002D000010808FA0CF3B1F800C00CEA03069E42CC
:1002E00021D183004FF00F0C0CFA03F7BC4305FA41
:1002F00003FC4CEA040491F803C0BCF1280F05D1BB
:1003000000F1080C08FA0CF8C2F8148091F803C048
:10031000BCF1480F07D100F1080C4FF0010808FAB2
:100320000CF8C2F81080401C0828CED35460BDE8F9
:10033000F0810246002093680B400BB1012000E0E1
:1003400000207047416170470161704700BFFEE7C0
:1003500000BFFEE7704708B54FF4A06000F046F814
:1003600025208DF8000001208DF801008DF8020095
:100370008DF80300684600F001F808BD70B5002153
:1003800000230F22C47804B3154C246804F4E064FD
:10039000C4F5E064210AC1F10403CA40447804FAB8
:1003A00003F184781440214309010E4C0678A155CD
:1003B000047804F01F050124AC4005786D11AD00F0
:1003C00005F1E025C5F8004109E0047804F01F05B7
:1003D0000124AC40044D0678761145F8264070BDE6
:1003E0000CED00E000E400E080E100E002490143A0
:1003F000024A1160704700000000FA050CED00E0B1
:1004000070B50024002500BF0DE0E1B2002000F02F
:100410000DF8002504E00121002000F0A9F96D1C71
:10042000802DF8DB641C082CEFDB70BD70B5044632
:100430000D4605F00F01B031C8B2002100F098F967
:10044000102141EA1410002100F092F904F00F018C
:1004500041F00100002100F08BF970BD08B50121C9
:10046000202000F00BF90121402000F007F94FF4A3
:10047000C070ADF8000004208DF8030069460A48FA
:10048000FFF7CCFEF820ADF8000010208DF8030037
:1004900003208DF8020069460448FFF7BFFEF821EB
:1004A0000248FFF751FF08BD001801400014014049
:1004B00010B5FFF7D3FF10214348FFF745FF642035
:1004C00000F02DFE10214048FFF73CFF642000F0B3
:1004D00026FE10213C48FFF737FF0021AE2000F038
:1004E00047F90021084600F043F90021102000F0F0
:1004F0003FF90021402000F03BF90021812000F06D
:1005000037F90021FF2000F033F90021A12000F08D
:100510002FF90021C82000F02BF90021A62000F0BF
:1005200027F90021A82000F023F900213F2000F046
:100530001FF90021D32000F01BF90021084600F02C
:1005400017F90021D52000F013F90021802000F0D8
:100550000FF90021D92000F00BF90021F12000F063
:1005600007F90021DA2000F003F90021122000F041
:10057000FFF80021DB2000F0FBF80021402000F014
:10058000F7F80021202000F0F3F80021022000F00D
:10059000EFF800218D2000F0EBF80021142000F08E
:1005A000E7F80021A42000F0E3F80021A62000F0E5
:1005B000DFF80021AF2000F0DBF80021AF2000F0D1
:1005C000D7F8FFF71DFF10BD001401402DE9F041E1
:1005D00005460E4617460024F1B2E8B2FFF726FFA3
:1005E00000BF04E0385D012100F0C2F8A41C102C0B
:1005F000F8DB721CD1B2E8B2FFF718FF012404E067
:10060000385D012100F0B4F8A41C102CF8DBBDE823
:10061000F0812DE9F04105460E4617460024F1B25F
:10062000E8B2FFF703FF00BF04E0385D012100F0EE
:100630009FF8A41C202CF8DB721CD1B2E8B2FFF7A3
:10064000F5FE012404E0385D012100F091F8A41CBE
:10065000202CF8DBBDE8F0817047000029B1064A84
:10066000D2690243044BDA6104E0034AD26982434F
:10067000014BDA61704700000010024029B1064AC0
:1006800092690243044B9A6104E0034A92698243EF
:10069000014B9A61704700000010024030B5002104
:1006A0000022002400232D4D6D6805F00C0121B1BE
:1006B000042905D0082923D105E0294D056022E051
:1006C000274D05601FE0254D6D6805F47012234D20
:1006D0006D6805F48034022505EB92421CB9214D6A
:1006E000554305600BE01D4D6D6805F400351DB1E7
:1006F0001C4D5543056002E0194D5543056002E06D
:10070000174D056000BF00BF144D6D6805F0F00186
:100710000909154D6B5C0568DD4045600F4D6D683E
:1007200005F4E061090A104D6B5C4568DD408560A9
:100730000A4D6D6805F46051C90A0B4D6B5C456844
:10074000DD40C560054D6D6805F44041890B074DDE
:100750006B5CC568B5FBF3F5056130BD0010024068
:1007600000127A0000093D00000000201000002067
:1007700070B504460D46002625B120211748FFF725
:10078000E3FD03E020211548FFF7DCFD08211348B5
:10079000FFF7D8FD002616E040211048FFF7D2FDF4
:1007A00004F0800020B180210C48FFF7CDFD03E06C
:1007B00080210A48FFF7C6FD40210848FFF7C4FD25
:1007C0006006040E761C082EE6DB20210348FFF7A6
:1007D000B9FD08210148FFF7B7FD70BD00140140C5
:1007E000704710B500F002F810BD00000CB50020F5
:1007F000019000903348006840F48030314908602F
:1008000000BF3048006800F4003000900198401CA0
:100810000190009818B90198B0F5A06FF1D129485E
:10082000006800F4003010B10120009001E00020C9
:1008300000900098012843D12348006840F0100040
:10084000214908600846006820F003000860084657
:10085000006840F0020008601A4840681949486082
:100860000846406848600846406840F48060486038
:100870000846406820F47C1048600846406840F410
:10088000E81048600846006840F08070086000BFCB
:100890000C48006800F000700028F9D00948406852
:1008A00020F00300074948600846406840F0020015
:1008B000486000BF0348406800F00C000828F9D1E8
:1008C0000CBD0000001002400020024070470000F4
:1008D00010B51348006840F001001149086008464F
:1008E0004068104908400E494860084600680E49B3
:1008F00008400B4908600846006820F48020086022
:100900000846406820F4FE0048604FF41F008860ED
:10091000FFF767FF4FF000600449086010BD00005A
:10092000001002400000FFF8FFFFF6FE08ED00E0B7
:1009300021B1028842F08002028004E002884FF672
:100940007F731A400280704721B1028842F0010291
:10095000028004E002884FF6FE731A40028070475E
:1009600070B5002400220023058C4FF6FE7635403A
:100970000584028C8388048B4FF68F752C40B51E3E
:100980002C400D882C43751E2A400D892A434D8822
:100990002A43144DA8420BD0134DA84208D0134D42
:1009A000A84205D0124DA84202D0124DA84213D140
:1009B0004FF6F7752A404D892A434FF6FB752A40BA
:1009C0008D882A434FF6FF652B404FF6FF552B408D
:1009D0008D892B43CD892B4383800483CD888586E5
:1009E000028470BD002C01400034014000400140F1
:1009F00000440140004801400A460021018B4FF6A7
:100A0000F7731940114301837047000070B500244B
:100A100000220023058C4FF6EF7635400584028CCA
:100A20008388048B48F6FF752C404FF6FF452C4019
:100A30000D884FF6FF7606EA05252C434FF6DF7545
:100A40002A400D8906EA05152A434D8806EA051550
:100A50002A43154DA84202D0144DA8421DD14FF68D
:100A60007F752A404D894FF6FF7606EA05152A4321
:100A70004FF6BF752A408D8806EA05152A434FF6C2
:100A8000FF352B404FF2FF752B408D8906EA850517
:100A90002B43CD8906EA85052B4383800483CD88CB
:100AA0000587028470BD0000002C01400034014025
:100AB0000A460021018B4FF2FF7319404FF6FF7376
:100AC00003EA0223194301837047000000220288D1
:100AD0001D4B98420ED01D4B98420BD0B0F1804F69
:100AE00008D01B4B984205D01A4B984202D01A4BA3
:100AF000984204D14FF68F731A404B881A43174B14
:100B0000984207D0164B984204D04FF6FF431A4044
:100B1000CB881A4302808B8883850B8803850A4B18
:100B200098420BD0094B984208D00E4B984205D002
:100B30000D4B984202D00D4B984201D10B7A03869F
:100B40000123838270470000002C014000340140E3
:100B50000004004000080040000C0040001000406D
:100B600000140040004001400044014000480140A2
:100B700010B5002440F225519F4800F0B2F900283A
:100B800039D09D4800F068FA00287DD0FFF738FC86
:100B9000994800F061FA994941F82400084650F854
:100BA0002400302828D1964A00210846FFF731FD5D
:100BB000944A00211220FFF72CFD934A00212420A3
:100BC000FFF727FD914A00213620FFF722FD904ACA
:100BD00000214820FFF7FAFC8E4A02210020FFF78F
:100BE00018FD8D4A02211220FFF713FD8B4A0221C6
:100BF0002420FFF70EFDFEE0804850F82400312845
:100C000028D17F4A00210846FFF703FD7D4A0021D5
:100C10001220FFF7FEFC7C4A00212420FFF7F9FC9C
:100C20007A4A00213620FFF7F4FC794A0021482057
:100C3000FFF7CCFC774A02210020FFF7EAFC774A55
:100C400002211220FFF7E5FC734A02212420FFF75E
:100C5000E0FCD0E0694850F8240032282AD1684AE4
:100C600000210846FFF7D5FC664A00211220FFF755
:100C7000D0FC654A00212420FFF7CBFC634A002109
:100C80003620FFF7C6FC00E0B3E0614A00214820AF
:100C9000FFF79CFC614A02210020FFF7BAFC5D4A85
:100CA00002211220FFF7B5FC5B4A02212420FFF746
:100CB000B0FCA0E0514850F82400332828D1504A15
:100CC00000210846FFF7A5FC4E4A00211220FFF73D
:100CD000A0FC4D4A00212420FFF79BFC4B4A002139
:100CE0003620FFF796FC4A4A00214820FFF76EFCA9
:100CF0004A4A02210020FFF78CFC474A02211220B9
:100D0000FFF787FC434A02212420FFF782FC72E0B0
:100D10003A4850F82400342828D1394A002108469E
:100D2000FFF777FC374A00211220FFF772FC364AA2
:100D300000212420FFF76DFC344A00213620FFF704
:100D400068FC334A00214820FFF740FC324A022168
:100D50000020FFF75EFC2F4A02211220FFF759FC0A
:100D60002E4A02212420FFF754FC44E0234850F887
:100D70002400352828D1224A00210846FFF749FCE3
:100D8000204A00211220FFF744FC1F4A00212420A2
:100D9000FFF73FFC1D4A00213620FFF73AFC1C4AB2
:100DA00000214820FFF712FC1B4A02210020FFF718
:100DB00030FC1A4A02211220FFF72BFC154A0221AF
:100DC0002420FFF726FC16E00D4A00210846FFF715
:100DD00020FC0C4A00211220FFF71BFC084A0021CE
:100DE0002420FFF716FC074A00213620FFF711FCEC
:100DF00001E0601C84B210BD0038014014000020E6
:100E00000814000828140008481400086814000892
:100E10008814000898140008B8140008D8140008B2
:100E200021B1828942F40052828104E082894DF628
:100E3000FF731A408281704700B585B001210420FC
:100E4000FFF71CFC01218803FFF718FC4FF400702A
:100E5000ADF8100018208DF8130003208DF8120053
:100E600004A91748FFF7DAF94FF48060ADF81000D5
:100E700004208DF8130004A91148FFF7CFF94FF4AF
:100E8000165000900020ADF80400ADF80600ADF853
:100E90000800ADF80C000C20ADF80A0069460948BE
:100EA00000F06EF8FFF757FA012240F2255105488D
:100EB00000F041F801210348FFF7B2FF05B000BD83
:100EC000000801400038014002460020B1F5007FD3
:100ED00000D100BF13880B400BB1012000E00020BF
:100EE000704770B50246002400230025002040F61C
:100EF0006A16B14200D100BFC1F3421501F01F03D1
:100F0000012606FA03F3012D02D19689334006E04B
:100F1000022D02D1168A334001E0968A33400C122A
:100F2000012606FA04F41688344013B10CB10120EE
:100F300000E0002070BDF0B5034600240026002527
:100F4000002040F66A17B94200D100BF1846C1F32D
:100F5000421401F01F06012707FA06F5012C01D102
:100F60000C3004E0022C01D1103000E014301AB132
:100F700007682F43076002E00768AF430760F0BDD2
:100F80002DE9F04786B005460E460024A24600BF74
:100F9000A1460027B08900B100BF2F462C8A4CF62D
:100FA000FF700440F08804432C82AC894EF6F310A5
:100FB0000440B08831890843718908430443AC81F7
:100FC000AC8A4FF6FF400440B0890443AC8201A8CC
:100FD000FFF764FB1F48874202D1DDF810A001E053
:100FE000DDF80CA0A88900F4004040B10AEBCA006B
:100FF00000EB0A1031684900B0FBF1F807E00AEB9A
:10100000CA0000EB0A1031688900B0FBF1F86420D7
:10101000B8FBF0F004012009642101FB1089A889C4
:1010200000F4004040B1322000EBC900B0FBF1F009
:1010300000F00700044308E0322000EB09106421AF
:10104000B0FBF1F000F00F0004432C8106B0BDE8C6
:10105000F08700000038014001468888C0F308008E
:101060007047C1F308028280704700BFFEE770B589
:1010700004460D4629462046FFF7F3FF00BF8021B6
:101080002046FFF721FF0028F9D070BD70B5064655
:101090000C46002500BF615D3046FFF7E8FF6D1C80
:1010A000605D6128F7D100BF40213046FFF70CFF9B
:1010B0000028F9D070BD02E008C8121F08C1002A3C
:1010C000FAD170477047002001E001C1121F002AC9
:1010D000FBD1704708B50FE000F054F910B900F0EB
:1010E0005DF948B1012003460022114600904FF4FB
:1010F000E17000F0E9F800E0EEE700BF08BD002174
:1011000007E04FF4FA5100BF0A00A1F1010399B2C0
:10111000FAD10200A0F1010398B2F2D17047002188
:1011200007E042F6E06100BF0A00A1F1010399B2B5
:10113000FAD10200A0F1010398B2F2D17047000089
:1011400008B5FFF779FEFFF725F8FFF7B1F9364A42
:1011500000210846FFF75DFA344A00211220FFF70C
:1011600058FA334A00212420FFF753FA314A00216C
:101170003620FFF74EFA304A00214820FFF726FAC2
:10118000012003460022114600904FF4617000F0E8
:101190009BF8012003464FF4E17211460090500085
:1011A00000F092F84FF47A60FFF7A9FFFFF792FF83
:1011B0004FF49670FFF7A3FF00F044F84FF49670D9
:1011C000FFF79DFF00F0F8F84FF49670FFF797FFD8
:1011D000012003464FF4E17211460090500000F0E8
:1011E00073F8FFF777FF4FF47A70FFF788FF00F08E
:1011F00029F84FF47A70FFF782FF012003464FF47D
:10120000E17211460090500000F05EF842F2283082
:10121000FFF775FFFFF75EFF00F014F807A108481D
:10122000FFF734FF002008BD081400082814000848
:10123000481400086814000888140008536100006E
:101240000038014008B500F09DF801281BD100F0DE
:10125000A5F8C0B901200346002240F26541009084
:10126000480000F031F80CE000F098F8012808D1AF
:1012700003460022114600904FF4E17000F024F87C
:1012800000E0F1E700BF00F07DF8D8B900F086F883
:10129000012817D1034640F265420021009050001A
:1012A00000F012F80CE000F06DF8012808D10346B8
:1012B0000022114600904FF4E17000F005F800E0C4
:1012C000F1E700BF08BD00002DE9F04188B00446F9
:1012D0000D4616461F46DDF83880B8F1010F05D1DE
:1012E0004FF400612548FFF72DF804E04FF400614A
:1012F0002248FFF729F82FB94FF480511F48FFF714
:1013000023F804E04FF480511C48FFF71BF8ADF8B8
:1013100018404FF44870ADF814000020ADF81A00E2
:10132000ADF8160005A91648FFF7D0FB6020ADF810
:1013300004000120ADF80600ADF80A500020ADF819
:101340000C0001A90E48FFF70BFB08210C48FFF722
:1013500053FBADF80A6001A90948FFF757FB0821C4
:101360000748FFF7A5FB01210548FFF7E1FA012136
:101370000348FFF7E9FA08B0BDE8F0810008014032
:10138000000C004010B580210348FEF7D2FF08B9D9
:10139000012010BD0020FCE70018014010B54FF4FB
:1013A00000710448FEF7C5FF08B9012010BD0020F8
:1013B000FCE700000018014008B5012003464FF487
:1013C000E172114600905000FFF77EFFFA20FFF710
:1013D00096FE002001234FF4E17211460090500068
:1013E000FFF772FF40F63400FFF789FE0120034645
:1013F0000022114600904FF46170FFF765FF4FF433
:101400009670FFF77CFE08BD000180006000F8FFC9
:1014100087008040844084408440FE7F8240834037
:1014200082408040800000000001000190808842DE
:101430004C22571AA4072402544254828C42843E00
:101440000001000100010000004000420044FE587D
:101450009240927F924092409240927F9240FE5002
:10146000004800460040000040204010420842066C
:10147000420042404280C27F42004200420042029B
:101480004204400840300000000000000000C0306E
:10149000C03000000000000020223067AC22631240
:1014A000201218120040044004400440FC7F044015
:1014B000044004400040000020223067AC22631248
:1014C000301200008022921492489284927F9204FB
:1014D000FE0880148022000004400440E47D04449F
:1014E0000F44F47D04440445F444447CCF44444513
:1014F000447C44400440000018150008000000200F
:1015000014000000B61000082C150008140000207C
:1015100004140000C61000080000000001020304CB
:0C15200001020304060708090204060883
:0400000508000131BD
:00000001FF
