:020000040800F2
:100000001814002045010008550300084D0300089E
:10001000510300088D01000847110008000000008E
:10002000000000000000000000000000E1070008E0
:10003000910100080000000059060008CD080008E2
:100040005F0100085F0100085F0100085F01000810
:100050005F0100085F0100085F0100085F01000800
:100060005F0100085F0100085F0100085F010008F0
:100070005F0100085F0100085F0100085F010008E0
:100080005F0100085F0100085F0100085F010008D0
:100090005F0100085F0100085F0100085F010008C0
:1000A0005F0100085F0100085F0100085F010008B0
:1000B0005F0100085F0100085F0100085F010008A0
:1000C0005F0100085F0100085F0100085F01000890
:1000D0005F010008710B00085F0100085F01000864
:1000E0005F0100085F0100085F0100085F01000870
:1000F0005F0100085F0100085F0100085F01000860
:100100005F0100085F0100085F0100085F0100084F
:100110005F0100085F0100085F0100085F0100083F
:100120005F0100085F0100085F0100085F0100082F
:10013000DFF80CD000F018F8004800471D12000846
:10014000181400200648804706480047FEE7FEE7EF
:10015000FEE7FEE7FEE7FEE7FEE7FEE7FEE7FEE777
:10016000D108000831010008064C074D06E0E068A0
:1001700040F0010394E8070098471034AC42F6D3EE
:10018000FFF7DAFF101800083018000800BFFEE77C
:100190007047000008B50121022000F05FFA01213C
:1001A000042000F05BFA0121082000F057FA012139
:1001B0004C2000F063FA0320ADF8000018208DF801
:1001C000030003208DF802006946114800F026F86C
:1001D0004FF4C050ADF8000010208DF803006946C0
:1001E0000B4800F01BF840F2C330ADF80000694640
:1001F000084800F013F84FF4F060ADF80000042058
:100200008DF803006946044800F008F808BD0000B6
:1002100000080140000C0140001801402DE9F041A8
:10022000024600250026002000230024002791F824
:1002300003C00CF00F0591F803C00CF0100CBCF1DA
:10024000000F03D091F802C04CEA050591F800C0F8
:10025000BCF1000F31D0146800202BE04FF0010CEE
:100260000CFA00F3B1F800C00CEA03069E4220D15C
:1002700083004FF00F0C0CFA03F7BC4305FA03FCA4
:100280004CEA040491F803C0BCF1280F06D14FF0EA
:10029000010C0CFA00FCC2F814C00AE091F803C08B
:1002A000BCF1480F05D14FF0010C0CFA00FCC2F86C
:1002B00010C0401C0828D1D31460B1F800C0BCF1B4
:1002C000FF0F34DD546800202EE000F1080C4FF0E1
:1002D000010808FA0CF3B1F800C00CEA03069E42CC
:1002E00021D183004FF00F0C0CFA03F7BC4305FA41
:1002F00003FC4CEA040491F803C0BCF1280F05D1BB
:1003000000F1080C08FA0CF8C2F8148091F803C048
:10031000BCF1480F07D100F1080C4FF0010808FAB2
:100320000CF8C2F81080401C0828CED35460BDE8F9
:10033000F0810246002093680B400BB1012000E0E1
:1003400000207047416170470161704700BFFEE7C0
:1003500000BFFEE7704708B54FF4A06000F046F814
:1003600025208DF8000001208DF801008DF8020095
:100370008DF80300684600F001F808BD70B5002153
:1003800000230F22C47804B3154C246804F4E064FD
:10039000C4F5E064210AC1F10403CA40447804FAB8
:1003A00003F184781440214309010E4C0678A155CD
:1003B000047804F01F050124AC4005786D11AD00F0
:1003C00005F1E025C5F8004109E0047804F01F05B7
:1003D0000124AC40044D0678761145F8264070BDE6
:1003E0000CED00E000E400E080E100E002490143A0
:1003F000024A1160704700000000FA050CED00E0B1
:1004000070B50024002500BF0DE0E1B2002000F02F
:100410000DF8002504E00121002000F0A9F96D1C71
:10042000802DF8DB641C082CEFDB70BD70B5044632
:100430000D4605F00F01B031C8B2002100F098F967
:10044000102141EA1410002100F092F904F00F018C
:1004500041F00100002100F08BF970BD08B50121C9
:10046000202000F00BF90121402000F007F94FF4A3
:10047000C070ADF8000004208DF8030069460A48FA
:10048000FFF7CCFEF820ADF8000010208DF8030037
:1004900003208DF8020069460448FFF7BFFEF821EB
:1004A0000248FFF751FF08BD001801400014014049
:1004B00010B5FFF7D3FF10214348FFF745FF642035
:1004C00000F09BFE10214048FFF73CFF642000F045
:1004D00094FE10213C48FFF737FF0021AE2000F0CA
:1004E00047F90021084600F043F90021102000F0F0
:1004F0003FF90021402000F03BF90021812000F06D
:1005000037F90021FF2000F033F90021A12000F08D
:100510002FF90021C82000F02BF90021A62000F0BF
:1005200027F90021A82000F023F900213F2000F046
:100530001FF90021D32000F01BF90021084600F02C
:1005400017F90021D52000F013F90021802000F0D8
:100550000FF90021D92000F00BF90021F12000F063
:1005600007F90021DA2000F003F90021122000F041
:10057000FFF80021DB2000F0FBF80021402000F014
:10058000F7F80021202000F0F3F80021022000F00D
:10059000EFF800218D2000F0EBF80021142000F08E
:1005A000E7F80021A42000F0E3F80021A62000F0E5
:1005B000DFF80021AF2000F0DBF80021AF2000F0D1
:1005C000D7F8FFF71DFF10BD001401402DE9F041E1
:1005D00005460E4617460024F1B2E8B2FFF726FFA3
:1005E00000BF04E0385D012100F0C2F8A41C102C0B
:1005F000F8DB721CD1B2E8B2FFF718FF012404E067
:10060000385D012100F0B4F8A41C102CF8DBBDE823
:10061000F0812DE9F04105460E4617460024F1B25F
:10062000E8B2FFF703FF00BF04E0385D012100F0EE
:100630009FF8A41C202CF8DB721CD1B2E8B2FFF7A3
:10064000F5FE012404E0385D012100F091F8A41CBE
:10065000202CF8DBBDE8F0817047000029B1064A84
:10066000D2690243044BDA6104E0034AD26982434F
:10067000014BDA61704700000010024029B1064AC0
:1006800092690243044B9A6104E0034A92698243EF
:10069000014B9A61704700000010024030B5002104
:1006A0000022002400232D4D6D6805F00C0121B1BE
:1006B000042905D0082923D105E0294D056022E051
:1006C000274D05601FE0254D6D6805F47012234D20
:1006D0006D6805F48034022505EB92421CB9214D6A
:1006E000554305600BE01D4D6D6805F400351DB1E7
:1006F0001C4D5543056002E0194D5543056002E06D
:10070000174D056000BF00BF144D6D6805F0F00186
:100710000909154D6B5C0568DD4045600F4D6D683E
:1007200005F4E061090A104D6B5C4568DD408560A9
:100730000A4D6D6805F46051C90A0B4D6B5C456844
:10074000DD40C560054D6D6805F44041890B074DDE
:100750006B5CC568B5FBF3F5056130BD0010024068
:1007600000127A0000093D00000000201000002067
:1007700070B504460D46002625B120211748FFF725
:10078000E3FD03E020211548FFF7DCFD08211348B5
:10079000FFF7D8FD002616E040211048FFF7D2FDF4
:1007A00004F0800020B180210C48FFF7CDFD03E06C
:1007B00080210A48FFF7C6FD40210848FFF7C4FD25
:1007C0006006040E761C082EE6DB20210348FFF7A6
:1007D000B9FD08210148FFF7B7FD70BD00140140C5
:1007E000704710B500F002F810BD00000CB50020F5
:1007F000019000903348006840F48030314908602F
:1008000000BF3048006800F4003000900198401CA0
:100810000190009818B90198B0F5A06FF1D129485E
:10082000006800F4003010B10120009001E00020C9
:1008300000900098012843D12348006840F0100040
:10084000214908600846006820F003000860084657
:10085000006840F0020008601A4840681949486082
:100860000846406848600846406840F48060486038
:100870000846406820F47C1048600846406840F410
:10088000E81048600846006840F08070086000BFCB
:100890000C48006800F000700028F9D00948406852
:1008A00020F00300074948600846406840F0020015
:1008B000486000BF0348406800F00C000828F9D1E8
:1008C0000CBD0000001002400020024070470000F4
:1008D00010B51348006840F001001149086008464F
:1008E0004068104908400E494860084600680E49B3
:1008F00008400B4908600846006820F48020086022
:100900000846406820F4FE0048604FF41F008860ED
:10091000FFF767FF4FF000600449086010BD00005A
:10092000001002400000FFF8FFFFF6FE08ED00E0B7
:1009300021B1028842F08002028004E002884FF672
:100940007F731A400280704721B1028842F0010291
:10095000028004E002884FF6FE731A40028070475E
:1009600070B5002400220023058C4FF6FE7635403A
:100970000584028C8388048B4FF68F752C40B51E3E
:100980002C400D882C43751E2A400D892A434D8822
:100990002A43144DA8420BD0134DA84208D0134D42
:1009A000A84205D0124DA84202D0124DA84213D140
:1009B0004FF6F7752A404D892A434FF6FB752A40BA
:1009C0008D882A434FF6FF652B404FF6FF552B408D
:1009D0008D892B43CD892B4383800483CD888586E5
:1009E000028470BD002C01400034014000400140F1
:1009F00000440140004801400A460021018B4FF6A7
:100A0000F7731940114301837047000070B500244B
:100A100000220023058C4FF6EF7635400584028CCA
:100A20008388048B48F6FF752C404FF6FF452C4019
:100A30000D884FF6FF7606EA05252C434FF6DF7545
:100A40002A400D8906EA05152A434D8806EA051550
:100A50002A43154DA84202D0144DA8421DD14FF68D
:100A60007F752A404D894FF6FF7606EA05152A4321
:100A70004FF6BF752A408D8806EA05152A434FF6C2
:100A8000FF352B404FF2FF752B408D8906EA850517
:100A90002B43CD8906EA85052B4383800483CD88CB
:100AA0000587028470BD0000002C01400034014025
:100AB0000A460021018B4FF2FF7319404FF6FF7376
:100AC00003EA0223194301837047000000220288D1
:100AD0001D4B98420ED01D4B98420BD0B0F1804F69
:100AE00008D01B4B984205D01A4B984202D01A4BA3
:100AF000984204D14FF68F731A404B881A43174B14
:100B0000984207D0164B984204D04FF6FF431A4044
:100B1000CB881A4302808B8883850B8803850A4B18
:100B200098420BD0094B984208D00E4B984205D002
:100B30000D4B984202D00D4B984201D10B7A03869F
:100B40000123838270470000002C014000340140E3
:100B50000004004000080040000C0040001000406D
:100B600000140040004001400044014000480140A2
:100B700010B5002440F22551D34800F020FA002897
:100B800037D0D14800F0D6FA00287DD0CE4800F00A
:100B9000D1FACE4941F82400084650F82400302804
:100BA00028D1CB4A00210846FFF733FDC94A00216E
:100BB0001220FFF72EFDC84A00212420FFF729FD4F
:100BC000C64A00213620FFF724FDC54A00214820EF
:100BD000FFF7FCFCC34A02210020FFF71AFDC24ABE
:100BE00002211220FFF715FDC04A02212420FFF741
:100BF00010FD67E1B54850F82400312828D1B44AE7
:100C000000210846FFF705FDB24A00211220FFF738
:100C100000FDB14A00212420FFF7FBFCAF4A002170
:100C20003620FFF7F6FCAE4A00214820FFF7CEFC45
:100C3000AC4A02210020FFF7ECFCAC4A0221122052
:100C4000FFF7E7FCA84A02212420FFF7E2FC39E184
:100C50009E4850F8240032282AD19D4A0021084697
:100C6000FFF7D7FC9B4A00211220FFF7D2FC9A4ADB
:100C700000212420FFF7CDFC984A00213620FFF701
:100C8000C8FC974A002100E01AE14820FFF79EFCCB
:100C9000964A02210020FFF7BCFC924A0221122052
:100CA000FFF7B7FC904A02212420FFF7B2FC09E1CC
:100CB000864850F82400332828D1854A0021084668
:100CC000FFF7A7FC834A00211220FFF7A2FC824A0B
:100CD00000212420FFF79DFC804A00213620FFF7E9
:100CE00098FC7F4A00214820FFF770FC7F4A0221D0
:100CF0000020FFF78EFC7C4A02211220FFF789FCBE
:100D0000784A02212420FFF784FCDBE06F4850F88A
:100D10002400342828D16E4A00210846FFF779FCC8
:100D20006C4A00211220FFF774FC6B4A002124203A
:100D3000FFF76FFC694A00213620FFF76AFC684A1A
:100D400000214820FFF742FC674A02210020FFF7FC
:100D500060FC644A02211220FFF75BFC634A022117
:100D60002420FFF756FCADE0584850F82400352801
:100D700028D1574A00210846FFF74BFC554A00216D
:100D80001220FFF746FC544A00212420FFF741FCC3
:100D9000524A00213620FFF73CFC514A00214820EE
:100DA000FFF714FC504A02210020FFF732FC4F4AA3
:100DB00002211220FFF72DFC4A4A02212420FFF7CE
:100DC00028FC7FE0414850F8240041280FD1484AD0
:100DD00006210020FFF7FAFB464A06211220FFF702
:100DE000F5FB454A06212420FFF7F0FB6AE037486F
:100DF00050F8240042280FD13D4A06210020FFF779
:100E0000E5FB3D4A06211220FFF7E0FB394A0621A7
:100E10002420FFF7DBFB55E02C4850F82400432842
:100E20000FD1344A06210020FFF7D0FB304A0621BB
:100E30001220FFF7CBFB304A06212420FFF7C6FB28
:100E400040E0224850F8240044280FD1294A0621C6
:100E50000020FFF7BBFB284A06211220FFF7B6FB54
:100E6000234A06212420FFF7B1FB2BE0174850F856
:100E7000240045280FD1204A06210020FFF7A6FBB9
:100E80001B4A06211220FFF7A1FB1A4A0621242043
:100E9000FFF79CFB16E00D4850F82400462811D1BE
:100EA000154A06210020FFF791FB124A0621122065
:100EB000FFF78CFB0E4A06212420FFF787FB01E099
:100EC000601C84B210BD00000038014014000020F6
:100ED0006016000880160008A0160008C01600085A
:100EE00040170008501700087017000890170008F6
:100EF000B0170008C0170008D017000821B1828978
:100F000042F40052828104E082894DF6FF731A4058
:100F10008281704700B585B001210420FFF7AEFB48
:100F200001218803FFF7AAFB4FF40070ADF8100011
:100F300018208DF8130003208DF8120004A917481B
:100F4000FFF76CF94FF48060ADF8100004208DF8C5
:100F5000130004A91148FFF761F94FF416500090EF
:100F60000020ADF80400ADF80600ADF80800ADF8BB
:100F70000C000C20ADF80A006946094800F06EF834
:100F8000FFF7E9F9012240F22551054800F041F848
:100F900001210348FFF7B2FF05B000BD0008014082
:100FA0000038014002460020B1F5007F00D100BFAB
:100FB00013880B400BB1012000E00020704770B592
:100FC0000246002400230025002040F66A16B142A4
:100FD00000D100BFC1F3421501F01F03012606FA3C
:100FE00003F3012D02D19689334006E0022D02D190
:100FF000168A334001E0968A33400C12012606FA25
:1010000004F41688344013B10CB1012000E0002034
:1010100070BDF0B50346002400260025002040F6F0
:101020006A17B94200D100BF1846C1F3421401F05B
:101030001F06012707FA06F5012C01D10C3004E048
:10104000022C01D1103000E014301AB107682F4390
:10105000076002E00768AF430760F0BD2DE9F04785
:1010600086B005460E460024A24600BFA1460027D2
:10107000B08900B100BF2F462C8A4CF6FF700440A7
:10108000F08804432C82AC894EF6F3100440B088FB
:1010900031890843718908430443AC81AC8A4FF617
:1010A000FF400440B0890443AC8201A8FFF7F6FA80
:1010B0001F48874202D1DDF810A001E0DDF80CA046
:1010C000A88900F4004040B10AEBCA0000EB0A1006
:1010D00031684900B0FBF1F807E00AEBCA0000EB09
:1010E0000A1031688900B0FBF1F86420B8FBF0F019
:1010F00004012009642101FB1089A88900F4004043
:1011000040B1322000EBC900B0FBF1F000F0070065
:10111000044308E0322000EB09106421B0FBF1F039
:1011200000F00F0004432C8106B0BDE8F0870000FA
:101130000038014001468888C0F308007047C1F3B9
:1011400008028280704700BFFEE770B504460D4676
:1011500029462046FFF7F3FF00BF80212046FFF716
:1011600021FF0028F9D070BD70B506460C46002559
:1011700000BF615D3046FFF7E8FF6D1C605D6128D0
:10118000F7D100BF40213046FFF70CFF0028F9D00F
:1011900070BD02E008C8121F08C1002AFAD17047CA
:1011A0007047002001E001C1121F002AFBD17047E7
:1011B00008B50FE000F0EEF910B900F0F7F948B10A
:1011C000012003460022114600904FF4E17000F028
:1011D00083F900E0EEE700BF08BD002107E04FF40F
:1011E000FA5100BF0A00A1F1010399B2FAD102003D
:1011F000A0F1010398B2F2D17047002107E042F656
:10120000E06100BF0A00A1F1010399B2FAD1020026
:10121000A0F1010398B2F2D17047000008B5FFF7C2
:1012200079FEFEF7B7FFFFF743F95F4A0021084652
:10123000FFF7EFF95D4A00211220FFF7EAF95C4A57
:1012400000212420FFF7E5F95A4A00213620FFF754
:10125000E0F9594A00214820FFF7B8F9574A04211C
:101260000020FFF7D6F9564A04211220FFF7D1F9E2
:10127000544A04212420FFF7CCF94F4A0421362098
:10128000FFF7A4F9012003460022114600904FF415
:10129000617000F021F9012003464FF4E17211461C
:1012A0000090500000F018F94FF47A60FFF795FFB6
:1012B000FFF77EFF4FF49670FFF78FFF00F0CBF83B
:1012C0006420FFF78AFF00F07FF96420FFF785FFB5
:1012D000012003464FF4E17211460090500000F0E7
:1012E000FBF8FFF765FF6420FFF777FF00F0B3F826
:1012F0006420FFF772FF012003464FF4E1721146AC
:101300000090500000F0E8F84FF4FA50FFF765FF46
:10131000FFF74EFF00F09FF82BA12C48FFF724FFAA
:101320004FF4FA60FFF759FF012003464FF4E172D2
:1013300011460090500000F0CFF84FF47A60FFF7AC
:101340004CFFFFF735FF4FF47A70FFF746FF0020A0
:1013500003464FF4E17211460090500000F0BCF8D3
:1013600041F28830FFF739FFFFF722FF4FF4967004
:10137000FFF733FF00F02CF86420FFF72EFF00F09A
:101380004BF9012003464FF4E172114600905000E2
:1013900000F0A2F84FF47A70FFF71FFFFFF708FF85
:1013A00000F059F8002008BD6016000880160008FB
:1013B000A0160008C016000840170008E016000834
:1013C0000017000820170008536100000038014092
:1013D00008B500F0DFF801281CD100F0E7F8C8B923
:1013E00000200346024640F265410090480000F0AC
:1013F00073F80DE000F0DAF8012809D10020034667
:101400000246014600904FF4E17000F065F800E0FC
:10141000F0E700BF00F0BEF8E0B900F0C7F801281F
:1014200018D10020034640F265420146009050006A
:1014300000F052F80CE000F0ADF8012808D10346A6
:101440000022114600904FF4E17000F045F800E0F2
:10145000F1E700BF08BD08B500F09CF801281BD1DA
:1014600000F0A4F8C0B901200346002240F2654113
:101470000090480000F030F80CE000F097F80128E8
:1014800008D103460022114600904FF4E17000F0AD
:1014900023F800E0F1E700BF00F07CF8D8B900F0D5
:1014A00085F8012817D1034640F2654200210090DB
:1014B000500000F011F80CE000F06CF8012808D1A1
:1014C00003460022114600904FF4E17000F004F84A
:1014D00000E0F1E700BF08BD2DE9F04188B0044607
:1014E0000D4616461F46DDF83880B8F1010F05D1CC
:1014F0004FF400612548FEF725FF04E04FF400613A
:101500002248FEF721FF2FB94FF480511F48FEF704
:101510001BFF04E04FF480511C48FEF713FFADF8A9
:1015200018404FF44870ADF814000020ADF81A00D0
:10153000ADF8160005A91648FFF7C8FA6020ADF807
:1015400004000120ADF80600ADF80A500020ADF807
:101550000C0001A90E48FFF703FA08210C48FFF719
:101560004BFAADF80A6001A90948FFF74FFA0821C4
:101570000748FFF79DFA01210548FFF7D9F9012136
:101580000348FFF7E1F908B0BDE8F0810008014029
:10159000000C004010B580210348FEF7CAFE08B9D0
:1015A000012010BD0020FCE70018014010B54FF4E9
:1015B00000710448FEF7BDFE08B9012010BD0020EF
:1015C000FCE700000018014008B5012003464FF475
:1015D000E172114600905000FFF77EFFD220FFF726
:1015E000FCFD002001234FF4E172114600905000F1
:1015F000FFF772FF40F27260FFF7EFFD0120034634
:101600000022114600904FF46170FFF765FF4FF420
:101610009670FFF7E2FD08BD08B5002003464FF4C1
:10162000E172114600905000FFF756FF6420FFF76B
:10163000D4FD002001234FF4E172114600905000C8
:10164000FFF74AFF40F27260FFF7C7FD0120034633
:101650000022114600904FF46170FFF73DFF08BD76
:10166000000180006000F8FF8700804084408440D3
:101670008440FE7F824083408240804080000000A2
:1016800000010001908088424C22571AA4072402CE
:10169000544254828C42843E00010001000100004B
:1016A000004000420044FE589240927F9240924097
:1016B0009240927F9240FE50004800460040000059
:1016C0004020401042084206420042404280C27F11
:1016D0004200420042004202420440084030000002
:1016E000001000100810081008100810081008104A
:1016F0000810081008100810081000100010000052
:1017000020223067AC226312201258122000F8FF0A
:101710004F2248224922FA3F48224822082000004E
:1017200004028401E47F5C104410C43F00000208FE
:10173000F208820882088248FE888040803F0000CC
:10174000000000000000C030C030000000000000B9
:1017500020223067AC22631220121812004004408D
:1017600004400440FC7F044004400440004000006A
:1017700020223067AC2263123012000080229214C3
:1017800092489284927F9204FE0880148022000086
:1017900004400440E47D04440F44F47D04440445C3
:1017A000F444447CCF444445447C4440044000001D
:1017B0000000000010201020F83F00200020000052
:1017C000000070300828082408220821F0300000AA
:1017D000000030180820082108218822701C000011
:1017E00000000006800540243024F83F0024002437
:1017F0000000F8198820882088200811080E0000B1
:101800000000E00F1011882088209020001F0000A9
:101810003018000800000020140000009211000899
:10182000441800081400002004140000A21100084D
:101830000000000001020304010203040607080976
:041840000204060890
:0400000508000131BD
:00000001FF
