:020000040800F2
:100000000004002045010008550300084D030008C6
:10001000510300088D010008F509000800000000E8
:10002000000000000000000000000000650600085D
:100030009101000800000000B10500085107000808
:100040005F0100085F0100085F0100085F01000810
:100050005F0100085F0100085F0100085F01000800
:100060005F0100085F0100085F0100085F010008F0
:100070005F0100085F0100085F0100085F010008E0
:100080005F0100085F0100085F0100085F010008D0
:100090005F0100085F0100085F0100085F010008C0
:1000A0005F0100085F0100085F0100085F010008B0
:1000B0005F0100085F0100085F0100085F010008A0
:1000C0005F0100085F0100085F0100085F01000890
:1000D0005F0100085F0100085F0100085F01000880
:1000E0005F0100085F0100085F0100085F01000870
:1000F0005F0100085F0100085F0100085F01000860
:100100005F0100085F0100085F0100085F0100084F
:100110005F0100085F0100085F0100085F0100083F
:100120005F0100085F0100085F0100085F0100082F
:10013000DFF80CD000F018F800480047810A0008EA
:10014000000400200648804706480047FEE7FEE717
:10015000FEE7FEE7FEE7FEE7FEE7FEE7FEE7FEE777
:100160005507000831010008064C074D06E0E0681D
:1001700040F0010394E8070098471034AC42F6D3EE
:10018000FFF7DAFF240E0008340E000800BFFEE778
:100190007047000008B50121022000F00BFA012190
:1001A000042000F007FA0121082000F003FA0121E1
:1001B0004C2000F00FFA0320ADF8000018208DF855
:1001C000030003208DF802006946114800F026F86C
:1001D0004FF4C050ADF8000010208DF803006946C0
:1001E0000B4800F01BF840F2C330ADF80000694640
:1001F000084800F013F84FF4F060ADF80000042058
:100200008DF803006946044800F008F808BD0000B6
:1002100000080140000C0140001801402DE9F041A8
:10022000024600250026002000230024002791F824
:1002300003C00CF00F0591F803C00CF0100CBCF1DA
:10024000000F03D091F802C04CEA050591F800C0F8
:10025000BCF1000F31D0146800202BE04FF0010CEE
:100260000CFA00F3B1F800C00CEA03069E4220D15C
:1002700083004FF00F0C0CFA03F7BC4305FA03FCA4
:100280004CEA040491F803C0BCF1280F06D14FF0EA
:10029000010C0CFA00FCC2F814C00AE091F803C08B
:1002A000BCF1480F05D14FF0010C0CFA00FCC2F86C
:1002B00010C0401C0828D1D31460B1F800C0BCF1B4
:1002C000FF0F34DD546800202EE000F1080C4FF0E1
:1002D000010808FA0CF3B1F800C00CEA03069E42CC
:1002E00021D183004FF00F0C0CFA03F7BC4305FA41
:1002F00003FC4CEA040491F803C0BCF1280F05D1BB
:1003000000F1080C08FA0CF8C2F8148091F803C048
:10031000BCF1480F07D100F1080C4FF0010808FAB2
:100320000CF8C2F81080401C0828CED35460BDE8F9
:10033000F0810246002093680B400BB1012000E0E1
:1003400000207047416170470161704700BFFEE7C0
:1003500000BFFEE7704770B50024002500BF0DE028
:10036000E1B2002000F00DF8002504E0012100209A
:1003700000F040F96D1C802DF8DB641C082CEFDBCD
:1003800070BD70B504460D4605F00F01B031C8B21E
:10039000002100F02FF9102141EA1410002100F093
:1003A00029F904F00F0141F00100002100F022F9C9
:1003B00070BD000008B50121202000F00BF90121DB
:1003C000402000F007F94FF4C070ADF800000420A1
:1003D0008DF8030069460A48FFF720FFF820ADF8C2
:1003E000000010208DF8030003208DF802006946FC
:1003F0000448FFF713FFF8210248FFF7A5FF08BDE7
:10040000001801400014014010B5FFF7D3FF102180
:100410004348FFF799FF642000F022FB1021404879
:10042000FFF790FF642000F01BFB10213C48FFF712
:100430008BFF0021AE2000F0DDF80021084600F01F
:10044000D9F80021102000F0D5F80021402000F05C
:10045000D1F80021812000F0CDF80021FF2000F02C
:10046000C9F80021A12000F0C5F80021C82000F043
:10047000C1F80021A62000F0BDF80021A82000F05E
:10048000B9F800213F2000F0B5F80021D32000F09A
:10049000B1F80021084600F0ADF80021D52000F0A9
:1004A000A9F80021802000F0A5F80021D92000F053
:1004B000A1F80021F12000F09DF80021DA2000F0E1
:1004C00099F80021122000F095F80021DB2000F0BF
:1004D00091F80021402000F08DF80021202000F04C
:1004E00089F80021022000F085F800218D2000F01D
:1004F00081F80021142000F07DF80021A42000F0F4
:1005000079F80021A62000F075F80021AF2000F056
:1005100071F80021AF2000F06DF8FFF71CFF10BD4F
:10052000001401402DE9F04105460E46174600240F
:10053000F1B2E8B2FFF725FF00BF04E0385D01210A
:1005400000F058F8A41C102CF8DB721CD1B2E8B2F1
:10055000FFF717FF012404E0385D012100F04AF89D
:10056000A41C102CF8DBBDE8F0812DE9F041054614
:100570000E4617460024F1B2E8B2FFF702FF00BFB3
:1005800004E0385D012100F035F8A41C202CF8DBD4
:10059000721CD1B2E8B2FFF7F4FE012404E0385D2A
:1005A000012100F027F8A41C202CF8DBBDE8F08125
:1005B0007047000029B1064AD2690243044BDA6150
:1005C00004E0034AD2698243014BDA6170470000BC
:1005D0000010024029B1064A92690243044B9A6115
:1005E00004E0034A92698243014B9A61704700001C
:1005F0000010024070B504460D46002625B12021AA
:100600001748FFF7A1FE03E020211548FFF79AFEE7
:1006100008211348FFF796FE002616E040211048F7
:10062000FFF790FE04F0800020B180210C48FFF716
:100630008BFE03E080210A48FFF784FE4021084832
:10064000FFF782FE6006040E761C082EE6DB2021F2
:100650000348FFF777FE08210148FFF775FE70BDDC
:1006600000140140704710B500F002F810BD000002
:100670000CB50020019000903348006840F48030B1
:100680003149086000BF3048006800F40030009035
:100690000198401C0190009818B90198B0F5A06F1E
:1006A000F1D12948006800F4003010B10120009019
:1006B00001E0002000900098012843D12348006801
:1006C00040F01000214908600846006820F003004F
:1006D00008600846006840F0020008601A48406858
:1006E000194948600846406848600846406840F438
:1006F000806048600846406820F47C1048600846E6
:10070000406840F4E81048600846006840F0807097
:10071000086000BF0C48006800F000700028F9D0A5
:100720000948406820F003000749486008464068CF
:1007300040F00200486000BF0348406800F00C0031
:100740000828F9D10CBD0000001002400020024032
:100750007047000010B51348006840F001001149CF
:10076000086008464068104908400E49486008463D
:1007700000680E4908400B4908600846006820F4EC
:10078000802008600846406820F4FE0048604FF46E
:100790001F008860FFF767FF4FF0006004490860A2
:1007A00010BD0000001002400000FFF8FFFFF6FE41
:1007B00008ED00E021B1028842F08002028004E0EE
:1007C00002884FF67F731A400280704721B1028879
:1007D00042F00102028004E002884FF6FE731A40E4
:1007E0000280704770B5002400220023058C4FF66C
:1007F000FE7635400584028C8388048B4FF68F7516
:100800002C40B51E2C400D882C43751E2A400D89A6
:100810002A434D882A43144DA8420BD0134DA842B9
:1008200008D0134DA84205D0124DA84202D0124D57
:10083000A84213D14FF6F7752A404D892A434FF647
:10084000FB752A408D882A434FF6FF652B404FF6F3
:10085000FF552B408D892B43CD892B438380048307
:10086000CD888586028470BD002C01400034014093
:100870000040014000440140004801400A46002178
:10088000018B4FF6F7731940114301837047000045
:1008900070B5002400220023058C4FF6EF7635401A
:1008A0000584028C8388048B48F6FF752C404FF634
:1008B000FF452C400D884FF6FF7606EA05252C43B0
:1008C0004FF6DF752A400D8906EA05152A434D8843
:1008D00006EA05152A43154DA84202D0144DA84238
:1008E0001DD14FF67F752A404D894FF6FF7606EAF7
:1008F00005152A434FF6BF752A408D8806EA05156F
:100900002A434FF6FF352B404FF2FF752B408D8960
:1009100006EA85052B43CD8906EA85052B438380AE
:100920000483CD880587028470BD0000002C01403F
:10093000003401400A460021018B4FF2FF73194039
:100940004FF6FF7303EA0223194301837047000047
:10095000002202881D4B98420ED01D4B98420BD0AE
:10096000B0F1804F08D01B4B984205D01A4B9842EB
:1009700002D01A4B984204D14FF68F731A404B881D
:100980001A43174B984207D0164B984204D04FF6A3
:10099000FF431A40CB881A4302808B8883850B88DB
:1009A00003850A4B98420BD0094B984208D00E4B56
:1009B000984205D00D4B984202D00D4B984201D180
:1009C0000B7A03860123838270470000002C0140CC
:1009D000003401400004004000080040000C0040CA
:1009E000001000400014004000400140004401405D
:1009F0000048014000BFFEE702E008C8121F08C11E
:100A0000002AFAD170477047002001E001C1121F8F
:100A1000002AFBD1704708B50FE000F049F910B982
:100A200000F052F948B1012003460022114600901F
:100A30004FF4E17000F0DEF800E0EEE700BF08BD23
:100A4000002107E04FF4FA5100BF0A00A1F10103B1
:100A500099B2FAD10200A0F1010398B2F2D1704725
:100A6000002107E042F6E06100BF0A00A1F10103A6
:100A700099B2FAD10200A0F1010398B2F2D1704705
:100A800008B5FFF787FBFFF7BFFC344A0021084693
:100A9000FFF76BFD324A00211220FFF766FD314A55
:100AA00000212420FFF761FD2F4A00213620FFF7A7
:100AB0005CFD2E4A00214820FFF734FD012003464B
:100AC0000022114600904FF4617000F093F801206D
:100AD00003464FF4E17211460090500000F08AF88E
:100AE0004FF47A60FFF7ACFFFFF795FF4FF4967075
:100AF000FFF7A6FF00F03CF84FF49670FFF7A0FF59
:100B000000F0F0F84FF49670FFF79AFF01200346CB
:100B10004FF4E17211460090500000F06BF8FFF7BF
:100B20007AFF4FF47A70FFF78BFF00F021F84FF453
:100B30007A70FFF785FF012003464FF4E1721146FA
:100B40000090500000F056F841F65830FFF778FF5B
:100B5000FFF761FF00F00CF8002008BD340D00081D
:100B6000540D0008740D0008940D0008B40D000821
:100B700008B500F09DF801281BD100F0A5F8C0B918
:100B80000120034640F2654200210090500000F031
:100B900031F80CE000F098F8012808D10346002253
:100BA000114600904FF4E17000F024F800E0F1E706
:100BB00000BF00F07DF8D8B900F086F8012817D101
:100BC0000346002240F265410090480000F012F810
:100BD0000CE000F06DF8012808D103460022114610
:100BE00000904FF4E17000F005F800E0F1E700BF7D
:100BF00008BD00002DE9F04188B004460D461646B8
:100C00001F46DDF838802FB94FF400612648FFF702
:100C10009BFB04E04FF400612348FFF793FBB8F11E
:100C2000010F05D14FF480511F48FFF78DFB04E001
:100C30004FF480511C48FFF785FBADF818404FF486
:100C40004870ADF814000020ADF81A00ADF8160099
:100C500005A91648FFF77CFE6020ADF804000120CE
:100C6000ADF80600ADF80A500020ADF80C0001A95F
:100C70000E48FFF7B7FD08210C48FFF7FFFDADF860
:100C80000A6001A90948FFF703FE08210748FFF79A
:100C900051FE01210548FFF78DFD01210348FFF7B3
:100CA00095FD08B0BDE8F08100080140000C00404F
:100CB00010B580210348FFF73CFB08B9012010BDA7
:100CC0000020FCE70018014010B54FF40071044803
:100CD000FFF72FFB08B9012010BD0020FCE7000042
:100CE0000018014008B5012003464FF4E172114697
:100CF00000905000FFF77EFFC820FFF7A1FE002004
:100D000001234FF4E172114600905000FFF772FF8B
:100D100040F27260FFF794FE012003460022114664
:100D200000904FF46170FFF765FF4FF49670FFF786
:100D300087FE08BD000180006000F8FF870080404A
:100D4000844084408440FE7F8240834082408040D3
:100D50008000000000010001908088424C22571A58
:100D6000A4072402544254828C42843E00010001B4
:100D700000010000004000420044FE589240927F73
:100D8000924092409240927F9240FE50004800462E
:100D9000004000004020401042084206420042400D
:100DA0004280C27F420042004200420242044008A8
:100DB00040300000000000000000C030C0300000E3
:100DC0000000000020223067AC22631220121812AB
:100DD0000040044004400440FC7F044004400440C0
:100DE0000040000020223067AC2263123012000065
:100DF0008022921492489284927F9204FE0880147A
:100E00008022000004400440E47D04440F44F47D4B
:100E100004440445F444447CCF444445447C444069
:100E200004400000340E0008000000200004000010
:040E3000080A0008A4
:0400000508000131BD
:00000001FF
