:020000040800F2
:10000000201400204501000859030008510300088E
:10001000550300088D010008CF1200080000000001
:10002000000000000000000000000000C5070008FC
:1000300091010008000000003D060008B10800081A
:100040005F0100085F0100085F0100085F01000810
:100050005F0100085F0100085F0100085F01000800
:100060005F0100085F0100085F0100085F010008F0
:100070005F0100085F0100085F0100085F010008E0
:100080005F0100085F0100085F0100085F010008D0
:100090005F0100085F0100085F0100085F010008C0
:1000A0005F0100085F0100085F0100085F010008B0
:1000B0005F0100085F0100085F0100085F010008A0
:1000C0005F0100085F0100085F0100085F01000890
:1000D0005F010008A10C00085F0100085F01000833
:1000E0005F0100085F0100085F0100085F01000870
:1000F0005F0100085F0100085F0100085F01000860
:100100005F0100085F0100085F0100085F0100084F
:100110005F0100085F0100085F0100085F0100083F
:100120005F0100085F0100085F0100085F0100082F
:10013000DFF80CD000F018F800480047211900083B
:10014000201400200648804706480047FEE7FEE7E7
:10015000FEE7FEE7FEE7FEE7FEE7FEE7FEE7FEE777
:10016000B508000831010008064C074D06E0E068BC
:1001700040F0010394E8070098471034AC42F6D3EE
:10018000FFF7DAFFA42B0008C42B000800BFFEE72E
:100190007047000008B50121022000F051FA01214A
:1001A000042000F04DFA0121082000F049FA012155
:1001B0004C2000F055FA0320ADF8000018208DF80F
:1001C000030003208DF802006946124800F028F869
:1001D0004FF4C050ADF8000010208DF803006946C0
:1001E0000C4800F01DF818208DF8030040F2C330D1
:1001F000ADF800006946084800F012F84FF4F060CE
:10020000ADF8000004208DF803006946034800F0B3
:1002100007F808BD00080140000C0140001801402B
:100220002DE9F0410246002500260020002300248D
:10023000002791F803C00CF00F0591F803C00CF0F3
:10024000100CBCF1000F03D091F802C04CEA050578
:1002500091F800C0BCF1000F31D0146800202BE0F1
:100260004FF0010C0CFA00F3B1F800C00CEA0306E1
:100270009E4220D183004FF00F0C0CFA03F7BC43D1
:1002800005FA03FC4CEA040491F803C0BCF1280F02
:1002900006D14FF0010C0CFA00FCC2F814C00AE0C1
:1002A00091F803C0BCF1480F05D14FF0010C0CFAD6
:1002B00000FCC2F810C0401C0828D1D31460B1F86B
:1002C00000C0BCF1FF0F34DD546800202EE000F1C7
:1002D000080C4FF0010808FA0CF3B1F800C00CEA62
:1002E00003069E4221D183004FF00F0C0CFA03F756
:1002F000BC4305FA03FC4CEA040491F803C0BCF1CA
:10030000280F05D100F1080C08FA0CF8C2F8148087
:1003100091F803C0BCF1480F07D100F1080C4FF071
:10032000010808FA0CF8C2F81080401C0828CED347
:100330005460BDE8F0810246002093680B400BB189
:10034000012000E000207047416170470161704763
:1003500000BFFEE700BFFEE7704708B54FF4A0609E
:1003600000F046F825208DF8000001208DF80100EE
:100370008DF802008DF80300684600F001F808BD12
:1003800070B5002100230F22C47804B3154C2468F3
:1003900004F4E064C4F5E064210AC1F10403CA4036
:1003A000447804FA03F184781440214309010E4C87
:1003B0000678A155047804F01F050124AC400578A7
:1003C0006D11AD0005F1E025C5F8004109E00478A4
:1003D00004F01F050124AC40044D0678761145F861
:1003E000264070BD0CED00E000E400E080E100E09C
:1003F00002490143024A1160704700000000FA05FB
:100400000CED00E070B50024002500BF0DE0E1B266
:10041000002000F00DF8002504E00121002000F08C
:1004200099F96D1C802DF8DB641C082CEFDB70BD86
:1004300070B504460D4605F00F01B031C8B2002179
:1004400000F088F9102141EA1410002100F082F92F
:1004500004F00F0141F00100002100F07BF970BDB4
:1004600008B50121202000F0FBF8F820ADF80000CD
:1004700010208DF8030003208DF80200694604481F
:10048000FFF7CEFEF8210248FFF760FF08BD00002D
:100490000014014010B5FFF7E3FF10214348FFF7B8
:1004A00055FF642001F09EF910214048FFF74CFFF2
:1004B000642001F097F910213C48FFF747FF002125
:1004C000AE2000F047F90021084600F043F9002172
:1004D000102000F03FF90021402000F03BF90021FE
:1004E000812000F037F90021FF2000F033F90021CE
:1004F000A12000F02FF90021C82000F02BF90021E5
:10050000A62000F027F90021A82000F023F90021FF
:100510003F2000F01FF90021D32000F01BF900213B
:10052000084600F017F90021D52000F013F900214A
:10053000802000F00FF90021D92000F00BF90021F4
:10054000F12000F007F90021DA2000F003F9002182
:10055000122000F0FFF80021DB2000F0FBF8002162
:10056000402000F0F7F80021202000F0F3F80021EF
:10057000022000F0EFF800218D2000F0EBF80021C0
:10058000142000F0E7F80021A42000F0E3F8002197
:10059000A62000F0DFF80021AF2000F0DBF80021FA
:1005A000AF2000F0D7F8FFF72DFF10BD0014014079
:1005B0002DE9F04105460E4617460024F1B2E8B297
:1005C000FFF736FF00BF04E0385D012100F0C2F8FC
:1005D000A41C102CF8DB721CD1B2E8B2FFF728FF84
:1005E000012404E0385D012100F0B4F8A41C102CB3
:1005F000F8DBBDE8F0812DE9F04105460E461746CF
:100600000024F1B2E8B2FFF713FF00BF04E0385D49
:10061000012100F09FF8A41C202CF8DB721CD1B241
:10062000E8B2FFF705FF012404E0385D012100F086
:1006300091F8A41C202CF8DBBDE8F0817047000085
:1006400029B1064AD2690243044BDA6104E0034A45
:10065000D2698243014BDA6170470000001002400A
:1006600029B1064A92690243044B9A6104E0034AA5
:1006700092698243014B9A6170470000001002406A
:1006800030B500210022002400232D4D6D6805F0B7
:100690000C0121B1042905D0082923D105E0294DF9
:1006A000056022E0274D05601FE0254D6D6805F4CB
:1006B0007012234D6D6805F48034022505EB9242DB
:1006C0001CB9214D554305600BE01D4D6D6805F4C7
:1006D00000351DB11C4D5543056002E0194D5543D1
:1006E000056002E0174D056000BF00BF144D6D6846
:1006F00005F0F0010909154D6B5C0568DD404560AA
:100700000F4D6D6805F4E061090A104D6B5C45689A
:10071000DD4085600A4D6D6805F46051C90A0B4DD6
:100720006B5C4568DD40C560054D6D6805F4404172
:10073000890B074D6B5CC568B5FBF3F5056130BDF2
:100740000010024000127A0000093D000000002065
:100750001000002070B504460D46002625B120216A
:100760001748FFF7F3FD03E020211548FFF7ECFDE4
:1007700008211348FFF7E8FD002616E04021104845
:10078000FFF7E2FD04F0800020B180210C48FFF764
:10079000DDFD03E080210A48FFF7D6FD402108482F
:1007A000FFF7D4FD6006040E761C082EE6DB202140
:1007B0000348FFF7C9FD08210148FFF7C7FD70BDD9
:1007C00000140140704710B500F002F810BD0000A1
:1007D0000CB50020019000903348006840F4803050
:1007E0003149086000BF3048006800F400300090D4
:1007F0000198401C0190009818B90198B0F5A06FBD
:10080000F1D12948006800F4003010B101200090B7
:1008100001E0002000900098012843D1234800689F
:1008200040F01000214908600846006820F00300ED
:1008300008600846006840F0020008601A484068F6
:10084000194948600846406848600846406840F4D6
:10085000806048600846406820F47C104860084684
:10086000406840F4E81048600846006840F0807036
:10087000086000BF0C48006800F000700028F9D044
:100880000948406820F0030007494860084640686E
:1008900040F00200486000BF0348406800F00C00D0
:1008A0000828F9D10CBD00000010024000200240D1
:1008B0007047000010B51348006840F0010011496E
:1008C000086008464068104908400E4948600846DC
:1008D00000680E4908400B4908600846006820F48B
:1008E000802008600846406820F4FE0048604FF40D
:1008F0001F008860FFF767FF4FF000600449086041
:1009000010BD0000001002400000FFF8FFFFF6FEDF
:1009100008ED00E021B1028842F08002028004E08C
:1009200002884FF67F731A400280704721B1028817
:1009300042F00102028004E002884FF6FE731A4082
:100940000280704770B5002400220023058C4FF60A
:10095000FE7635400584028C8388048B4FF68F75B4
:100960002C40B51E2C400D882C43751E2A400D8945
:100970002A434D882A43144DA8420BD0134DA84258
:1009800008D0134DA84205D0124DA84202D0124DF6
:10099000A84213D14FF6F7752A404D892A434FF6E6
:1009A000FB752A408D882A434FF6FF652B404FF692
:1009B000FF552B408D892B43CD892B4383800483A6
:1009C000CD888586028470BD002C01400034014032
:1009D0000040014000440140004801400A46002117
:1009E000018B4FF6F77319401143018370470000E4
:1009F00070B5002400220023058C4FF6EF763540B9
:100A00000584028C8388048B48F6FF752C404FF6D2
:100A1000FF452C400D884FF6FF7606EA05252C434E
:100A20004FF6DF752A400D8906EA05152A434D88E1
:100A300006EA05152A43154DA84202D0144DA842D6
:100A40001DD14FF67F752A404D894FF6FF7606EA95
:100A500005152A434FF6BF752A408D8806EA05150D
:100A60002A434FF6FF352B404FF2FF752B408D89FF
:100A700006EA85052B43CD8906EA85052B4383804D
:100A80000483CD880587028470BD0000002C0140DE
:100A9000003401400A460021018B4FF2FF731940D8
:100AA0004FF6FF7303EA02231943018370470000E6
:100AB00070B5002400220023058C4FF6FF663540F8
:100AC0000584028C8388848B4FF68F752C404FF6FB
:100AD000FC752C400D882C434FF6FF552A400D899C
:100AE0004FF6FF7606EA05252A434D8806EA0525D6
:100AF0002A43154DA84202D0144DA8421DD14FF2F1
:100B0000FF752A404D894FF6FF7606EA05252A43F0
:100B10004FF6FF352A408D8806EA05252A434EF612
:100B2000FF752B404DF6FF752B408D8906EA0515A4
:100B30002B43CD8906EA05152B4383808483CD881A
:100B40008587028470BD0000002C01400034014004
:100B50000A460021818B4FF6F773194011438183B8
:100B60007047000070B5002200230024058C4EF66B
:100B7000FF7635400584038C8488828B48F6FF75A8
:100B80002A404FF6FF452A400D884FF6FF7606EAC9
:100B900005252A434DF6FF752B400D8906EA0535DC
:100BA0002B434D8806EA05352B430B4DA84202D056
:100BB0000A4DA84208D14BF6FF752C408D894FF69F
:100BC000FF7606EA85152C4384808283CD88A0F8C1
:100BD0004050038470BD0000002C014000340140EF
:100BE0000A460021818B4FF2FF7319404FF6FF73C5
:100BF00003EA022319438183704700000022028820
:100C00001D4B98420ED01D4B98420BD0B0F1804F37
:100C100008D01B4B984205D01A4B984202D01A4B71
:100C2000984204D14FF68F731A404B881A43174BE2
:100C3000984207D0164B984204D04FF6FF431A4013
:100C4000CB881A4302808B8883850B8803850A4BE7
:100C500098420BD0094B984208D00E4B984205D0D1
:100C60000D4B984202D00D4B984201D10B7A03866E
:100C70000123838270470000002C014000340140B2
:100C80000004004000080040000C0040001000403C
:100C90000014004000400140004401400048014071
:100CA00010B5002440F22551E74800F04CFA002826
:100CB0003AD0E54800F002FB00287DD0E24800F081
:100CC000FDFAE24941F82400084650F82400302893
:100CD0002BD1DF4A00210846FFF78DFCDD4A0021B9
:100CE0001220FFF788FCDC4A00212420FFF783FC58
:100CF000DA4A00213620FFF77EFCD94A002148203D
:100D0000FFF756FCD74A02210020FFF774FCD64AB1
:100D100002211220FFF76FFCD44A02212420FFF7A2
:100D20006AFC7B20D24908608CE1C84850F8240056
:100D300031282BD1C64A00210846FFF75CFCC54A82
:100D400000211220FFF757FCC34A00212420FFF79F
:100D500052FCC24A00213620FFF74DFCC04A002158
:100D60004820FFF725FCBF4A02210020FFF743FC83
:100D7000BE4A02211220FFF73EFCBB4A022124207A
:100D8000FFF739FC8420BA4908605BE1AF4850F8AE
:100D9000240032282ED1AE4A00210846FFF72BFC52
:100DA000AC4A00211220FFF726FCAB4A0021242088
:100DB000FFF721FCA94A00E042E100213620FFF7BD
:100DC0001AFCA74A00214820FFF7F2FBA74A02219C
:100DD0000020FFF710FCA34A02211220FFF70BFCB2
:100DE000A14A02212420FFF706FC4FF49C70A04981
:100DF000086027E1954850F8240033282CD1944A04
:100E000000210846FFF7F7FB924A00211220FFF766
:100E1000F2FB914A00212420FFF7EDFB8F4A0021CD
:100E20003620FFF7E8FB8E4A00214820FFF7C0FB81
:100E30008E4A02210020FFF7DEFB8B4A022112209E
:100E4000FFF7D9FB874A02212420FFF7D4FB40F2A9
:100E5000411087490860F5E07C4850F824003428A8
:100E60002BD17B4A00210846FFF7C5FB794A0021B8
:100E70001220FFF7C0FB784A00212420FFF7BBFBBC
:100E8000764A00213620FFF7B6FB754A002148203C
:100E9000FFF78EFB744A02210020FFF7ACFB714A7A
:100EA00002211220FFF7A7FB704A02212420FFF73E
:100EB000A2FBD5206E490860C4E0644850F82400C5
:100EC00035282BD1624A00210846FFF794FB614A7E
:100ED00000211220FFF78FFB5F4A00212420FFF73B
:100EE0008AFB5E4A00213620FFF785FB5C4A002121
:100EF0004820FFF75DFB5C4A02210020FFF77BFBE7
:100F00005A4A02211220FFF776FB564A022124207A
:100F1000FFF771FBE7205649086093E04B4850F813
:100F20002400412812D1534A06210020FFF740FB3C
:100F3000514A06211220FFF73BFB504A062124208C
:100F4000FFF736FB7B204E4908607BE03F4850F8B6
:100F50002400422812D1474A06210020FFF728FB2F
:100F6000464A06211220FFF723FB434A062124208C
:100F7000FFF71EFB84204249086063E0334850F8C5
:100F80002400432812D13C4A06210020FFF710FB21
:100F9000384A06211220FFF70BFB384A062124208D
:100FA000FFF706FBD520364908604BE0274850F88C
:100FB0002400442812D1304A06210020FFF7F8FA15
:100FC0002E4A06211220FFF7F3FA2A4A062124208E
:100FD000FFF7EEFAE7202A49086033E01B4850F893
:100FE0002400452813D1254A06210020FFF7E0FA06
:100FF000204A06211220FFF7DBFA1F4A062124208F
:10100000FFF7D6FA4FF49C701D4908601AE00F48AC
:1010100050F82400462815D1184A06210020FFF771
:10102000C7FA154A06211220FFF7C2FA114A062113
:101030002420FFF7BDFA40F241101149086001E099
:10104000601C84B210BD0000003801401C0000206C
:10105000F4290008142A0008342A0008542A000839
:10106000D42A0008E42A0008042B0008242B0008D6
:1010700014000020442B0008542B0008642B0008A7
:101080001800002021B1828942F40052828104E0DC
:1010900082894DF6FF731A408281704700B585B092
:1010A00001210420FFF7DCFA01218803FFF7D8FAB9
:1010B0004FF40070ADF8100018208DF813000320D5
:1010C0008DF8120004A91748FFF7AAF84FF48060C2
:1010D000ADF8100004208DF8130004A91148FFF7A3
:1010E0009FF84FF4165000900020ADF80400ADF8C2
:1010F0000600ADF80800ADF80C000C20ADF80A00B1
:101100006946094800F06EF8FFF727F9012240F21E
:101110002551054800F041F801210348FFF7B2FFCF
:1011200005B000BD00080140003801400246002023
:10113000B1F5007F00D100BF13880B400BB1012037
:1011400000E00020704770B502460024002300250F
:10115000002040F66A16B14200D100BFC1F342152B
:1011600001F01F03012606FA03F3012D02D196892F
:10117000334006E0022D02D1168A334001E0968A00
:1011800033400C12012606FA04F41688344013B1D9
:101190000CB1012000E0002070BDF0B50346002432
:1011A00000260025002040F66A17B94200D100BF92
:1011B0001846C1F3421401F01F06012707FA06F58D
:1011C000012C01D10C3004E0022C01D1103000E0E0
:1011D00014301AB107682F43076002E00768AF4375
:1011E0000760F0BD2DE9F04786B005460E460024A5
:1011F000A24600BFA1460027B08900B100BF2F461C
:101200002C8A4CF6FF700440F08804432C82AC8991
:101210004EF6F3100440B0883189084371890843C1
:101220000443AC81AC8A4FF6FF400440B0890443CC
:10123000AC8201A8FFF724FA1F48874202D1DDF8EB
:1012400010A001E0DDF80CA0A88900F4004040B136
:101250000AEBCA0000EB0A1031684900B0FBF1F854
:1012600007E00AEBCA0000EB0A1031688900B0FB06
:10127000F1F86420B8FBF0F004012009642101FBBF
:101280001089A88900F4004040B1322000EBC90069
:10129000B0FBF1F000F00700044308E0322000EB5F
:1012A00009106421B0FBF1F000F00F0004432C8121
:1012B00006B0BDE8F087000000380140014688888C
:1012C000C0F308007047C1F308028280704700BF76
:1012D000FEE770B504460D4629462046FFF7F3FFAA
:1012E00000BF80212046FFF721FF0028F9D070BD04
:1012F00070B506460C46002500BF615D3046FFF71D
:10130000E8FF6D1C605D6128F7D100BF40213046C9
:10131000FFF70CFF0028F9D070BD02E008C8121FCB
:1013200008C1002AFAD170477047002001E001C1CE
:10133000121F002AFBD1704708B50FE001F0F4FA44
:1013400010B901F0FDFA48B1012003460022114610
:1013500000904FF4E17001F0FBF900E0EEE700BF10
:1013600008BD00B589B05A200090822300222E21AA
:1013700001905E2001F0C6F84FF4FA605A218223F2
:10138000CDE90531CDE907100020742179225A23D7
:10139000CDE901320093CDE90310822302462E21CC
:1013A0005E2001F035F94FF4FA605A21B4228C2303
:1013B000CDE90532CDE907100E208B2179225A2381
:1013C000CDE901320093CDE903108223002274217C
:1013D000792001F01DF94FF4FA605A21B4225E23FE
:1013E000CDE90532CDE907102E20892173225A2339
:1013F000CDE90132CDE90310B4208C230E228B21DC
:101400000090792001F004F94FF4FA605A21B422D7
:10141000CDE90512CDE907104820982173225A23FF
:10142000CDE90132CDE90310B4205E232E228921BB
:101430000090732001F0ECF84FF4FA600321B4221D
:101440005A23CDE90532CDE9071036208F217322CA
:10145000CDE90132CDE90310B42048229821009053
:10146000732001F0D5F80320B4215A233622CDE9A8
:1014700000108F21732001F045F84FF4C87000F080
:10148000A1F94FF4FA600321B4225A23CDE90532C1
:10149000CDE907100020252173220323CDE9013275
:1014A000CDE90310B4205A2336228F2100907320F7
:1014B00001F0AEF84FF4FA600321B4227F23CDE9A6
:1014C0000532CDE90710002025215C220323CDE958
:1014D0000132CDE90310B4205A230022009073207A
:1014E00001F096F809B000BD00B589B000200346B0
:1014F0004FF4E17211460090500001F029F9C82024
:1015000000F060F9002003460246014600904FF4C7
:10151000617001F01DF9442000213223A622CDE99B
:10152000001070215A2000F0EDFF4FF4FA604421C2
:1015300000225623CDE90532CDE90710382070216D
:101540005A224423CDE90132CDE90310002096232D
:10155000A62200905A2001F05BF84FF4FA60442173
:10156000B4226C23CDE90532CDE9071011207A2190
:101570005D224423CDE90132CDE90310002056233A
:101580003822702100905A2001F042F84FF4FA609E
:101590004421B4226A23CDE90532CDE907100B209E
:1015A00070215D224423CDE90132CDE90310B4203E
:1015B0006C23112200905D2001F02AF84FF4FA60AC
:1015C0004421B4225823CDE90532CDE9071021206A
:1015D0007E215D224423CDE90132CDE90310B42000
:1015E0006A230B22702100905D2001F011F84FF466
:1015F000FA600921B4225823CDE90532CDE907105C
:1016000021207E215D224423CDE90132CDE9031062
:10161000B4205823212200905D2000F0F9FF002023
:10162000B42158232122CDE900107E215D2000F055
:1016300069FF4FF4FA7000F0C5F840F6B8300921A0
:1016400000221E23CDE90532CDE907102120032118
:101650005D220923CDE90132CDE90310B4205823DE
:1016600021227E2100905D2000F0D2FF09B000BD54
:1016700000B589B05A200090822300222E210190CB
:101680005E2000F03FFF4FF4FA605A218223CDE93B
:101690000531CDE907100020742142225A23CDE9FB
:1016A00001320093CDE90310822302462E215E20F1
:1016B00000F0AEFF4FF4FA605A21B4228C23CDE93A
:1016C0000532CDE907100E208B2142225A23CDE9A5
:1016D00001320093CDE903108223002274214220BD
:1016E00000F096FF4FF4FA605A21B4225E23CDE950
:1016F0000532CDE907102E20892142225A23CDE957
:101700000132CDE90310B4208C230E228B210090EE
:10171000422000F07DFF4FF4FA605A21B422CDE957
:101720000512CDE9071036208F2142225A23CDE938
:101730000132CDE90310B4205E232E2289210090CE
:10174000422000F065FF4FF4FA600321B4225A23CF
:10175000CDE90532CDE9071036208F214222CDE9AF
:101760000132CDE90310B42036220090422000F06F
:101770004FFF0320B4215A233622CDE900108F21D8
:10178000422000F0BFFE4FF4C87000F01BF840F696
:10179000B8300321B4225A23CDE90532CDE9071030
:1017A0000020252142220323CDE90132CDE9031097
:1017B000B4205A2336228F210090422000F028FFC7
:1017C00009B000BD002107E04FF4FA5100BF0A0044
:1017D000A1F1010399B2FAD10200A0F1010398B27C
:1017E000F2D17047002107E042F6E06100BF0A0035
:1017F000A1F1010399B2FAD10200A0F1010398B25C
:10180000F2D170472DE9F05F04460D46642094FB49
:10181000F0F0C6B20A2094FBF0F00A2190FBF1F23E
:1018200001FB120000F0FF0A0A2094FBF0F100FB1C
:10183000114000F0FF0B642095FBF0F0C7B20A20C6
:1018400095FBF0F00A2190FBF1F201FB120000F091
:10185000FF080A2095FBF0F100FB115000F0FF0992
:10186000012E10D1012F02D1FFF77BFD30E0B8F13E
:10187000010F02D1FFF738FE2AE0B9F1010F27D19D
:10188000FFF7F6FE24E0022E10D1022F02D1FFF75F
:1018900068FD1DE0B8F1020F02D1FFF725FE17E049
:1018A000B9F1020F14D1FFF7E3FE11E0032E0FD1BF
:1018B000032F02D1FFF755FD0AE0B8F1030F02D163
:1018C000FFF712FE04E0B9F1030F01D1FFF7D0FEDC
:1018D000BDE8F09F2DE9F0410446642094FBF0F050
:1018E000C5B20A2094FBF0F00A2190FBF1F201FB53
:1018F0001200C6B20A2094FBF0F100FB1140C7B2FF
:10190000012D02D100F044FC08E0022D02D100F0CC
:1019100099FB03E0032D01D100F0EAFABDE8F08164
:101920001CB5FFF7BBFBFEF735FCFEF7B3FDFE4A27
:1019300000210846FEF75FFEFC4A00211220FEF758
:101940005AFEFB4A00212420FEF755FEF94A0021E9
:101950003620FEF750FEF84A00214820FEF728FE08
:10196000F64A04210020FEF746FEF54A0421122023
:10197000FEF741FEF34A04212420FEF73CFEEE4A26
:1019800004213620FEF714FEEF4A06210020FEF760
:101990000FFEEE4A06211220FEF70AFEEC4A06214F
:1019A0002420FEF705FE442000219623A622CDE93F
:1019B000001070215A2000F0A5FD012003460022EE
:1019C000114600904FF4617000F0C2FE0120034602
:1019D0004FF4E17211460090500000F0B9FE4FF450
:1019E0007A60FFF7EFFEFFF7A7FC4FF49670FFF762
:1019F000E9FE00F046FD6420FFF7E4FE00F0AEFFD4
:101A00006420FFF7DFFE012003464FF4E172114628
:101A10000090500000F09CFEFFF78EFC6420FFF762
:101A2000D1FE00F02EFD6420FFF7CCFE012003461E
:101A30004FF4E17211460090500000F089FE4FF41F
:101A40007A70FFF7BFFEFFF777FC00F01AFD012068
:101A500003464FF4E17211460090500000F078FE0A
:101A60004FF47A70FFF7AEFEFFF766FC00F009FD59
:101A7000012003464FF4E17211460090500000F03F
:101A800067FE4FF47A70FFF79DFEFFF755FC00F0FC
:101A9000F8FCB0A1B048FFF72BFC4FF4FA60FFF759
:101AA00091FE012003464FF4E17211460090500070
:101AB00000F04EFE4FF47A70FFF784FEFFF73CFC17
:101AC00000F0DFFC012003464FF4E1721146009064
:101AD000500000F03DFE4FF47A70FFF773FEFFF701
:101AE0002BFC40F2DC50FFF76DFE002003464FF464
:101AF000E17211460090500000F02AFE41F2883059
:101B0000FFF760FEFFF718FC00F078FC00F04EFFD6
:101B1000012003464FF4E17211460090500000F09E
:101B200017FE4FF47A70FFF74DFEFFF705FC00F04B
:101B3000A8FC002003464FF4E172114600905000CB
:101B400000F006FE40F21450FFF73CFE0020034672
:101B50000246014600904FF4617000F0F9FD7F4AA3
:101B6000128891B27E4A128890B2FFF74BFE4FF472
:101B70007A70FFF727FE002003464FF4E17211460A
:101B80000090500000F0E4FD4FF4FA70FFF71AFEE9
:101B9000FFF7D2FB00F032FC002003464FF4E17265
:101BA00011460090500000F0D3FD4FF47A70FFF71B
:101BB00009FEFFF7C1FB00F021FC69490878FFF737
:101BC00089FE4FF47A70FFF7FDFD012003464FF4C4
:101BD000E17211460090500000F0BAFD4FF47A70A7
:101BE000FFF7F0FDFFF7A8FB00F04BFC01200346D8
:101BF0004FF4E17211460090500000F0A9FD4FF43F
:101C00007A70FFF7DFFDFFF797FB00F03AFC00204A
:101C100003464FF4E17211460090500000F098FD29
:101C200040F21450FFF7CEFD002003460246014665
:101C300000904FF4617000F08BFD484A128891B219
:101C4000474A128890B200F04BFB4FF47A70FFF7CE
:101C5000B9FD002003464FF4E17211460090500098
:101C600000F076FD4FF47A70FFF7ACFDFFF764FBF0
:101C700000F0C4FB002003464FF4E17211460090CF
:101C8000500000F065FD4FF47A70FFF79BFDFFF701
:101C900053FB00F0B3FB3249087800F089FB4FF4A6
:101CA0007A70FFF78FFD012003464FF4E172114671
:101CB0000090500000F04CFD4FF47A70FFF782FD69
:101CC000FFF73AFB00F0DDFB012003464FF4E17221
:101CD00011460090500000F03BFD4FF47A70FFF782
:101CE00071FDFFF729FB00F0CCFB002003464FF409
:101CF000E17211460090500000F02AFD40F21450AD
:101D0000FFF760FD002003460246014600904FF4B5
:101D1000617000F01DFD114A128891B2104A1288BC
:101D200090B200F073FD1DE0F4290008142A0008A9
:101D3000342A0008542A0008D42A0008742A00080B
:101D4000942A0008B42A0008442B0008542B0008E9
:101D5000642B00085361000000380140140000208B
:101D6000180000204FF47A70FFF72CFD0020034686
:101D70004FF4E17211460090500000F0E9FC4FF47E
:101D80007A70FFF71FFDFFF7D7FA00F037FB00204E
:101D900003464FF4E17211460090500000F0D8FC69
:101DA0004FF47A70FFF70EFDFFF7C6FA00F026FB3E
:101DB0004E49087800F092FD4FF47A70FFF702FD6B
:101DC000012003464FF4E17211460090500000F0EC
:101DD000BFFC4FF47A70FFF7F5FCFFF7ADFA00F0A7
:101DE00050FB00F0BBFD012003464FF4E1721146A9
:101DF0000090500000F0ACFC40F2DC50FFF7E2FC39
:101E0000FFF79AFA00F03DFB012003464FF4E17220
:101E100011460090500000F09BFC4FF47A70FFF7E1
:101E2000D1FCFFF789FA00F02CFB012003464FF4A8
:101E3000E17211460090500000F08AFC4FF47A7075
:101E4000FFF7C0FCFFF778FA00F01BFB0120034608
:101E50004FF4E17211460090500000F079FC40F21E
:101E6000AA50FFF7AFFC012000234FF4E1721146A6
:101E70000090500000F06CFC40F27260FFF7A2FC92
:101E8000012003460022114600904FF4617000F0DB
:101E90005FFC6420FFF796FC012003464FF4E172DB
:101EA00011460090500000F053FC4FF47A70FFF799
:101EB00089FCFFF741FA00F0E4FA012003464FF4F1
:101EC000E17211460090500000F042FC40F2A46024
:101ED000FFF778FC012003460022114600904FF4E2
:101EE000617000F035FC00201CBD000018000020CF
:101EF00000B589B00120B4217F230022CDE9001074
:101F00002521722000F0FEFA40F6B8300121B422FB
:101F10007F23CDE90532CDE907103B201B21972215
:101F20000123CDE90132CDE90310B4207F23002243
:101F300025210090722000F06BFB0120B4217F234B
:101F40003B22CDE900101B21972000F0DBFA4FF473
:101F5000C870FFF737FC40F6B83001210022332368
:101F6000CDE90532CDE90710802003219B22012312
:101F7000CDE90132CDE90310B4207F233B221B21A0
:101F80000090972000F044FB40F6B8300121002279
:101F90000592CDE906210890B22003219B2201235E
:101FA000CDE90132CDE903100020332380220090D7
:101FB0009B2000F02DFB40F6B830642100220592F2
:101FC000CDE906210890B22003219B220123CDE90F
:101FD0000132CDE9031000200346B22200909B207D
:101FE00000F016FB40F6B830642100220592CDE9DE
:101FF000062108909E2003219B226423CDE9013213
:10200000CDE9031000200346B22200909B2000F08F
:10201000FFFA40F6B830642100220592CDE906218E
:102020000890082003219B226423CDE90132CDE9E9
:102030000310002003469E2200909B2000F0E8FA47
:1020400009B000BD00B589B0012003464FF4E1722C
:1020500011460090500000F07BFB4FF4E160FFF769
:10206000B1FB012003460022114600904FF461703D
:1020700000F06EFB002007215A231A46CDE900101C
:102080001946522000F03EFA4FF4FA6000210D226A
:102090004623CDE90532CDE907109D205421522277
:1020A0000023CDE90132CDE9031007205A231A4657
:1020B00019460090522000F0ABFA4FF4FA6000216C
:1020C0000D222E23CDE90532CDE9071093201B21E7
:1020D00052220023CDE90132CDE903100D20462321
:1020E0009D2254210090522000F092FA4FF4FA60A1
:1020F00000210922CDE90512CDE90710B4200721FE
:1021000056220023CDE90132CDE903100D202E2304
:1021100093221B210090522000F07AFA4FF4FA60CB
:10212000392109220023CDE90532CDE90710B42079
:1021300007215622CDE90132CDE903100920B4224E
:102140000090562000F064FA4FF4FA60372109221B
:102150000023CDE90532CDE907100E2007215C22CE
:102160003923CDE90132CDE9031009200023B4223F
:102170000090562000F04CFA3720092100230E224F
:10218000CDE9001007215C2000F0BCF909B000BDCA
:1021900000B589B00120B4217F230022CDE90010D1
:1021A00025211B2000F0AEF940F6B8300121B42201
:1021B0007F23CDE90532CDE907103B201B21012308
:1021C000CDE901317F230092CDE9031000222521C2
:1021D0001B2000F01DFA0120B4217F233B22CDE912
:1021E00000101B21084600F08DF94FF4C870FFF76E
:1021F000E9FA40F6B830012100223323CDE9053257
:10220000CDE90710802003211B220123CDE90132F3
:10221000CDE90310B4207F233B221B210090084608
:1022200000F0F6F940F6B830012100220592CDE920
:1022300006210890B220032117220123CDE90132A3
:10224000CDE9031000203323802200901B2000F0F2
:10225000DFF940F6B830642100220592CDE906216D
:102260000890B220032117220123CDE90132CDE9E4
:10227000031000200346B2220090172000F0C8F996
:1022800040F6B830642100220592CDE9062108907D
:102290009E2003211B226423CDE90132CDE90310E6
:1022A00000200346B2220090172000F0B1F940F65A
:1022B000B830642100220592CDE90621089008205B
:1022C00003211B226423CDE90132CDE90310002054
:1022D00003469E2200901B2000F09AF909B000BD31
:1022E0002DE9F05F04460D46642094FBF0F000F009
:1022F000FF0A0A2094FBF0F00A2190FBF1F201FBA7
:102300001200C6B20A2094FBF0F100FB114000F06D
:10231000FF0B642095FBF0F0C7B20A2095FBF0F0AC
:102320000A2190FBF1F201FB120000F0FF080A20E5
:1023300095FBF0F100FB115000F0FF09012E10D1C8
:10234000012F02D1FFF70DF830E0B8F1010F02D1F3
:10235000FFF7CAF82AE0B9F1010F27D1FFF788F992
:1023600024E0022E10D1022F02D1FEF7FAFF1DE069
:10237000B8F1020F02D1FFF7B7F817E0B9F1020F79
:1023800014D1FFF775F911E0032E0FD1032F02D1FD
:10239000FEF7E7FF0AE0B8F1030F02D1FFF7A4F858
:1023A00004E0B9F1030F01D1FFF762F9BDE8F09F36
:1023B0002DE9F0410446642094FBF0F0C6B20A20F7
:1023C00094FBF0F00A2190FBF1F201FB1200C5B280
:1023D0000A2094FBF0F100FB1140C7B2012D02D19D
:1023E000FFF7D6FE08E0022D02D1FFF72BFE03E037
:1023F000032D01D1FFF77CFDBDE8F08108B500F0A9
:1024000093FA01281CD100F09BFAC8B900200346BA
:10241000024640F265410090480000F099F90DE055
:1024200000F08EFA012809D1002003460246014639
:1024300000904FF4E17000F08BF900E0F0E700BF8E
:1024400000F072FAE0B900F07BFA012818D1002000
:10245000034640F2654201460090500000F078F9D2
:102460000CE000F061FA012808D103460022114671
:1024700000904FF4E17000F06BF900E0F1E700BF6D
:1024800008BD08B500F050FA01281BD100F058FA39
:10249000C0B901200346002240F265410090480087
:1024A00000F056F90CE000F04BFA012808D1034681
:1024B0000022114600904FF4E17000F049F900E06D
:1024C000F1E700BF00F030FAD8B900F039FA01287E
:1024D00017D1034640F2654200210090500000F001
:1024E00037F90CE000F020FA012808D10346002259
:1024F000114600904FF4E17000F02AF900E0F1E796
:1025000000BF08BD2DE9F04387B004460D461646CE
:102510001F46DDE90E894FF4E160ADF814004FF479
:102520004870ADF810000020ADF81600ADF81200AC
:1025300004A93548FEF762FB6020ADF800000120D9
:10254000ADF802000020ADF8080004F12D00ADF850
:10255000060069462C48FEF7ABFA08212A48FEF728
:10256000F7FA05F12D00ADF8060069462648FEF79A
:10257000F9FA08212448FEF733FB04A92348FEF7A3
:102580003DFB06F12D00ADF8060069461F48FEF739
:10259000D9F908211C48FEF721FA07F12D00ADF802
:1025A000060069461948FEF723FA08211648FEF787
:1025B00071FA08F12D00ADF8060069461348FEF7E0
:1025C00077FA08211048FEF7C3FA09F12D00ADF89B
:1025D000060069460D48FEF7C5FA08210A48FEF7CD
:1025E000FFFA01210848FEF795F901210648FEF798
:1025F0009DF901210548FEF78DF901210348FEF7F9
:1026000095F907B0BDE8F0830004004000080040E1
:102610002DE9FF4F93B006460F469046DDF89CB07B
:10262000DDE9239A2298801BC0B21290A9EB070023
:10263000C0B21190AAEB0800C0B21090169925986C
:10264000401AC0B20F9020992698401AC0B20E903E
:102650002198ABEB0000C0B20D90DDE9111088426B
:1026600001DD129800E011980C90DDE90F1088420E
:1026700001DD109800E00F980B90DDE90D10884205
:1026800001DD0E9800E00D980A90DDE90B108842FC
:1026900001DD0C9800E00B980990DDE90901814209
:1026A00001DD0A9800E0099805462C4600BF49E084
:1026B0002198ABEB0000604390FBF5F0ABEB000022
:1026C000C0B2089020992698401A604390FBF5F11B
:1026D0002698401AC0B2079016992598401A604370
:1026E00090FBF5F12598401AC0B20690AAEB0800BD
:1026F000604390FBF5F0AAEB0000C0B20590A9EB97
:102700000700604390FBF5F0A9EB0000C0B2049015
:102710002298801B604390FBF5F12298401AC0B2CA
:102720000390DDE90701CDE9000103A80FC8FFF719
:10273000E9FE289890FBF5F080B20890FFF742F888
:10274000601EC4B2002CB3DC17B0BDE8F08F0000EF
:102750002DE9F04188B004460D4616461F46DDF8C7
:102760003880B8F1000F05D14FF400612548FDF71E
:10277000EBFD04E04FF400612248FDF7E7FD012F77
:1027800004D139031F48FDF7E1FD04E04FF4805107
:102790001C48FDF7D9FDADF818404FF44870ADF86E
:1027A00014000020ADF81A00ADF8160005A916486F
:1027B000FEF724FA6020ADF804000120ADF8060011
:1027C000ADF80A500020ADF80C0001A90E48FEF744
:1027D000B9F808210C48FEF701F9ADF80A6001A923
:1027E0000948FEF705F908210748FEF753F90121CA
:1027F0000548FEF78FF801210348FEF797F808B067
:10280000BDE8F08100080140000C00402DE9F05FB8
:1028100004460D46642094FBF0F000F0FF0A0A2005
:1028200094FBF0F00A2190FBF1F201FB120000F0A2
:10283000FF0B0A2094FBF0F100FB1140C6B26420AC
:1028400095FBF0F0C7B20A2095FBF0F00A2190FB4F
:10285000F1F201FB120000F0FF080A2095FBF0F1F5
:1028600000FB115000F0FF09012E10D1012F02D101
:10287000FEF777FD30E0B8F1010F02D1FEF734FE2C
:102880002AE0B9F1010F27D1FEF7F2FE24E0022E73
:1028900010D1022F02D1FEF764FD1DE0B8F1020F46
:1028A00002D1FEF721FE17E0B9F1020F14D1FEF7B5
:1028B000DFFE11E0032E0FD1032F02D1FEF751FDF1
:1028C0000AE0B8F1030F02D1FEF70EFE04E0B9F101
:1028D000030F01D1FEF7CCFEBDE8F09F2DE9F041DA
:1028E0000446642094FBF0F0C6B20A2094FBF0F09A
:1028F0000A2190FBF1F201FB1200C7B20A2094FBFF
:10290000F0F100FB1140C5B2012D02D1FFF740FCF0
:1029100008E0022D02D1FFF795FB03E0032D01D162
:10292000FFF7E6FABDE8F08110B580210348FDF716
:1029300002FD08B9012010BD0020FCE7001801408D
:1029400010B54FF400710448FDF7F5FC08B90120FB
:1029500010BD0020FCE700000018014008B5012070
:1029600003464FF4E172114600905000FFF7F0FE6D
:10297000D220FEF727FF002001234FF4E172114619
:1029800000905000FFF7E4FE40F2D660FEF71AFF19
:10299000012003460022114600904FF46170FFF7BA
:1029A000D7FE4FF49670FEF70DFF08BD08B5002066
:1029B00003464FF4E172114600905000FFF7C8FE45
:1029C0006420FEF7FFFE002001234FF4E172114660
:1029D00000905000FFF7BCFE4FF4C860FEF7F2FE17
:1029E000012003460022114600904FF46170FFF76A
:1029F000AFFE08BD000180006000F8FF8700804046
:102A0000844084408440FE7F8240834082408040F6
:102A10008000000000010001908088424C22571A7B
:102A2000A4072402544254828C42843E00010001D7
:102A300000010000004000420044FE589240927F96
:102A4000924092409240927F9240FE500048004651
:102A50000040000040204010420842064200424030
:102A60004280C27F420042004200420242044008CB
:102A70004030000000100010081008100810081066
:102A8000081008100810081008100810081000108E
:102A90000010000020223067AC226312201258126E
:102AA0002000F8FF4F2248224922FA3F48224822BC
:102AB0000820000004028401E47F5C104410C43F3D
:102AC00000000208F208820882088248FE888040DE
:102AD000803F0000000000000000C030C030000057
:102AE0000000000020223067AC226312201218126E
:102AF0000040044004400440FC7F04400440044083
:102B00000040000020223067AC2263123012000027
:102B10008022921492489284927F9204FE0880143C
:102B20008022000004400440E47D04440F44F47D0E
:102B300004440445F444447CCF444445447C44402C
:102B4000044000000000000010201020F83F00208A
:102B50000020000000007030082808240822082106
:102B6000F0300000000030180820082108218822D9
:102B7000701C000000000006800540243024F83F4F
:102B8000002400240000F8198820882088200811DB
:102B9000080E00000000E00F10118820882090200F
:102BA000001F0000C42B0008000000201C000000D3
:102BB0001A130008E02B00081C0000200414000079
:102BC0002A130008000000000102030401020304AC
:102BD0000607080902040608000000007B00000048
:0400000508000131BD
:00000001FF
